:100000000C9453000C947B000C947B000C947B00AC
:100010000C947B000C947B000C947B000C947B0074
:100020000C947B000C947B000C947B000C947B0064
:100030000C947B000C947B000C947B000C947B0054
:100040000C94F2030C947B000C94C0030C949A0360
:100050000C947B000C947B000C947B000C947B0034
:100060000C947B000C947B004E414E494E495459F0
:10007000494E46CDCCCC3D0AD7233C17B7D1387773
:10008000CC2B329595E6241FB14F0A000020410089
:1000900000C84200401C4620BCBE4CCA1B0E5AAED3
:1000A000C59D74003C0411241FBECFEFD8E0DEBF15
:1000B000CDBF22E0AEE8B1E001C01D92A73BB20780
:1000C000E1F711E0A0E0B1E0E0E9F5E102C0059060
:1000D0000D92AE38B107D9F710E0C3E5D0E004C007
:1000E0002197FE010E94BB0AC235D107C9F70E94C1
:1000F0007B040C94C60A0C940000E0EDF1E0A089AA
:10010000B18982E08C93A485B5851C92A685B785BC
:1001100087E68C93108EA489B58986E08C93A2899A
:10012000B3898C9180618C93A289B3898C9188600A
:100130008C93A289B3898C9180688C930288F3890F
:10014000E02D80818F7D80830895CF92DF92EF92A2
:10015000FF920F931F93CF93DF936C017A018B0172
:10016000C0E0D0E0CE15DF0589F0D8016D918D019A
:10017000D601ED91FC910190F081E02DC601099529
:10018000892B11F47E0102C02196ECCFC701DF91CB
:10019000CF911F910F91FF90EF90DF90CF90089536
:1001A000089580E090E00895FC01538D448D252F43
:1001B00030E0842F90E0821B930B541710F0CF9601
:1001C000089501970895FC01918D828D981761F033
:1001D000828DDF01A80FB11D5D968C91928D9F5F7E
:1001E0009F73928F90E008958FEF9FEF0895FC0129
:1001F000918D828D981731F0828DE80FF11D858DDC
:1002000090E008958FEF9FEF0895FC01918D228D6E
:10021000892F90E0805C9F4F821B91098F739927F3
:10022000089580ED91E00E94050121E0892B09F4F9
:1002300020E0822F0895FC01848DDF01A80FB11DFD
:10024000A35ABF4F2C91848D90E001968F7399270C
:10025000848FA689B7892C93A089B1898C918064F9
:100260008C93938D848D981306C00288F389E02DBA
:1002700080818F7D80830895EF92FF920F931F936B
:10028000CF93DF93EC0181E0888F9B8D8C8D981349
:1002900005C0E889F989808185FD24C0F62E0B8D83
:1002A00010E00F5F1F4F0F731127E02E8C8DE812A7
:1002B0000CC00FB607FCFACFE889F989808185FF69
:1002C000F5CFCE010E941B01F1CF8B8DFE01E80F0F
:1002D000F11DE35AFF4FF0820B8FEA89FB89808181
:1002E000806207C0EE89FF896083E889F98980818F
:1002F0008064808381E090E0DF91CF911F910F9126
:10030000FF90EF900895CF93DF93EC01888D8823C1
:10031000C9F0EA89FB89808185FD05C0A889B98972
:100320008C9186FD0FC00FB607FCF5CF808185FF4D
:10033000F2CFA889B9898C9185FFEDCFCE010E94BB
:100340001B01E7CFDF91CF91089580E090E0892BEA
:1003500029F00E94110181110C94000008953FB70B
:10036000F8948091930190919401A0919501B0919E
:10037000960126B5A89B05C02F3F19F00196A11D37
:10038000B11D3FBFBA2FA92F982F8827820F911D2B
:10039000A11DB11DBC01CD0142E0660F771F881F72
:1003A000991F4A95D1F708952FB7F89460918F015E
:1003B0007091900180919101909192012FBF0895C9
:1003C000CF92DF92EF92FF920F931F93CF93DF9321
:1003D00005EC11E0C0E0D0E00E94D4016093D801A8
:1003E0007093D9018093DA019093DB01E091D00101
:1003F000F091D1010284F385E02D80ED91E0099523
:1004000097FD04C08A309105F9F425C00E94D401FB
:10041000C090D801D090D901E090DA01F090DB01D2
:10042000DC01CB018C199D09AE09BF09C090D40134
:10043000D090D501E090D601F090D7018C159D05A4
:10044000AE05BF0598F207C0F80181938F01219690
:10045000CA30D10509F6CE01DF91CF911F910F91DE
:10046000FF90EF90DF90CF900895E5ECF1E01192CE
:1004700081E0E03DF807D9F708950E94C10A6115AF
:10048000710579F0FB0101900020E9F73197AF0188
:10049000461B570BDC01ED91FC910280F381E02DAE
:1004A000099480E090E00895CF93DF93BC0180ED44
:1004B00091E00E943F02EC016DE271E080ED91E07D
:1004C0000E943F028C0F9D1FDF91CF9108954F92A4
:1004D0005F926F927F92EF92FF920F931F93CF9351
:1004E000DF93CDB7DEB7A1970FB6F894DEBF0FBE8E
:1004F000CDBF7C01FA01CB0119A2223008F42AE019
:100500008E010F5D1F4F422E512C612C712CBF01AB
:10051000A30192010E943009F901CA010150110999
:100520006A3014F4605D01C0695CD8016C93232BC0
:10053000242B252B61F7B801C7010E943F02A19629
:100540000FB6F894DEBF0FBECDBFDF91CF911F91E4
:100550000F91FF90EF907F906F905F904F90089574
:100560004F925F926F927F928F929F92AF92BF92C3
:10057000CF92DF92EF92FF926B017C01B42E9B0130
:10058000AC010E94B60A882319F062E171E027C02D
:1005900026013701E89477F82FEF3FEF4FE75FE749
:1005A000C301B2010E94B60A81110DC02FEF3FEFC7
:1005B0004FE75FE7C301B2010E94040818161CF45C
:1005C00066E171E00CC02FEF3FEF4FE75FE4C7013A
:1005D000B6010E94B10A181694F46AE171E080ED48
:1005E00091E0FF90EF90DF90CF90BF90AF909F9001
:1005F0008F907F906F905F904F900C943F022FEF01
:100600003FEF4FE75FECC701B6010E94040887FD8A
:10061000E4CF20E030E0A901C701B6010E94040840
:1006200087FF11C0E091D001F091D1010190F081DC
:10063000E02D6DE280ED91E009954C01F7FAF09420
:10064000F7F8F09402C0812C912CA12C60E070E0AE
:1006500080E09FE3AB1441F020E030E040E251E461
:100660000E94100AA394F6CF9B01AC01C701B6010A
:100670000E94A4092B013C010E94820A6B017C01AB
:100680000E9409089B01AC01C301B2010E94A309A9
:100690002B013C012AE0B701A60180ED91E00E9408
:1006A00067027C01E80CF91CBB2069F0E091D001E5
:1006B000F091D1010190F081E02D6EE280ED91E0AA
:1006C0000995E80EF91EDB2CDD2031F120E030E049
:1006D00040E251E4C301B2010E946A082B013C01CF
:1006E0000E94820A4B01A12CB12C2AE0B501A40181
:1006F00080ED91E00E946702E80EF91EC501B40189
:100700000E9409089B01AC01C301B2010E94A30928
:100710002B013C01DA94D8CFC701FF90EF90DF9016
:10072000CF90BF90AF909F908F907F906F905F9091
:100730004F9008951F920F920FB60F9211242F938E
:100740003F934F935F936F937F938F939F93AF9359
:10075000BF93EF93FF9380ED91E00E941B01FF9107
:10076000EF91BF91AF919F918F917F916F915F9129
:100770004F913F912F910F900FBE0F901F901895A2
:100780001F920F920FB60F9211242F938F939F9366
:10079000EF93FF93E091E001F091E1018081E0911E
:1007A000E601F091E70182FD12C090818091E9019C
:1007B0008F5F8F732091EA01821751F0E091E90178
:1007C000F0E0E053FE4F958F8093E90101C08081F6
:1007D000FF91EF919F918F912F910F900FBE0F90EE
:1007E0001F9018951F920F920FB60F9211242F93FE
:1007F0003F938F939F93AF93BF9380918F0190917D
:100800009001A0919101B091920130918E0123E06D
:10081000230F2D3720F40196A11DB11D05C026E838
:10082000230F0296A11DB11D20938E0180938F018D
:1008300090939001A0939101B093920180919301C4
:1008400090919401A0919501B09196010196A11DFE
:10085000B11D8093930190939401A0939501B0935F
:100860009601BF91AF919F918F913F912F910F90E2
:100870000FBE0F901F901895E0EDF1E013821282E9
:1008800088EE93E0A0E0B0E084839583A683B783ED
:1008900084E091E09183808385EC90E09587848764
:1008A00084EC90E09787868780EC90E0918B808B3A
:1008B00081EC90E0938B828B82EC90E0958B848B23
:1008C00086EC90E0978B868B118E128E138E148E91
:1008D000EDE6F2E0168217821086118612861386E4
:1008E0001486158616861786108A118A128A138A2C
:1008F000148A158A0895789484B5826084BD84B57D
:10090000816084BD85B5826085BD85B5816085BD0A
:1009100080916E00816080936E00109281008091C2
:10092000810082608093810080918100816080934A
:100930008100809180008160809380008091B1006F
:1009400084608093B1008091B00081608093B0009A
:1009500080917A00846080937A0080917A0082602E
:1009600080937A0080917A00816080937A008091F0
:100970007A00806880937A001092C1001092B102D0
:100980001092B2021092B3021092B40210926F024F
:100990001092700210927102109272020E94D401A1
:1009A0006B017C014B015C0128EB820E2BE0921E57
:1009B000A11CB11C0E94D4016C157D058E059F05FC
:1009C00028F086169706A806B906A0F780ED91E0F4
:1009D0009093B0028093AF020E947D000E94D401E8
:1009E00060936F0270937002809371029093720211
:1009F0006EE171E08091AF029091B0020E943F02DF
:100A00000E94D4016B017C014B015C018AE0880EDD
:100A1000911CA11CB11C0E94D4016C157D058E0592
:100A20009F0528F086169706A806B906A0F781E06C
:100A30008093830285EC80937C008FE880937A001A
:100A40000FE911E0C0E0D0E0CE010E942809F801D2
:100A500081938F012196C831D105B1F70E947D00A5
:100A60006091A5017091A6018091A7019091A801C4
:100A700047E00E94B0020E94350280E391E00E94AC
:100A8000540288EC90E0A0E0B0E08093D401909311
:100A9000D501A093D601B093D70180ED91E00E94DB
:100AA0000501892B09F10E94E0010A9729F483E4EA
:100AB00091E00E94540216C065E571E080ED91E07E
:100AC0000E943F0285EC91E00E94540285EC91E087
:100AD0000E947F0660939B0170939C0180939D010F
:100AE00090939E010E9435028AE591E00E94540293
:100AF00088EC90E0A0E0B0E08093D4019093D50121
:100B0000A093D601B093D70180ED91E00E9405013A
:100B1000892B09F10E94E0010A9729F483E491E00E
:100B20000E94540216C06DE671E080ED91E00E94D3
:100B30003F0285EC91E00E94540285EC91E00E9416
:100B40007F06609397017093980180939901909329
:100B50009A010E94350282E791E00E94540288ECDB
:100B600090E0A0E0B0E08093D4019093D501A093F1
:100B7000D601B093D70180ED91E00E940501892B49
:100B800009F10E94E0010A9729F483E491E00E94B0
:100B9000540216C067E871E080ED91E00E943F02C8
:100BA00085EC91E00E94540285EC91E00E947F0662
:100BB0006093BF017093C0018093C1019093C20103
:100BC0000E9435022091970130919801409199013E
:100BD00050919A0160919B0170919C0180919D01BF
:100BE00090919E010E94100A20E030E040E85FE30F
:100BF0000E94A4096093BB017093BC018093BD0166
:100C00009093BE0115E410937C0080917A0080647B
:100C100080937A0080917A0086FDFCCF80917800E5
:100C20002091790090E0EC01D22BD093C401C093C5
:100C3000C30120E030EC4FE754E46091BF017091B4
:100C4000C0018091C1019091C2010E94100A6B0104
:100C50007C01BE0180E090E00E9409089B01AC018C
:100C6000C701B6010E946A082091BB013091BC0106
:100C70004091BD015091BE010E94100A20E030E079
:100C800040E251E40E946A0823E333E948E853E470
:100C90000E94A3096093B7017093B8018093B901D2
:100CA0009093BA0147E00E94B0020E94AF014B014D
:100CB0005C0180EDC82E87E0D82EE12CF12C0E943B
:100CC000AF01DC01CB0188199909AA09BB09883E4B
:100CD0009340A105B10558F0F1E0CF1AD108E10821
:100CE000F10828EE820E23E0921EA11CB11CC11453
:100CF000D104E104F10419F70E94A50184CF66270D
:100D000077270C948C0691110C94E907803219F026
:100D100089508550C8F70895A0E0B0E0E2E9F6E018
:100D20000C946109EC017B016115710519F0DB017F
:100D30008D939C938E010F5F1F4F7880872D90E0DD
:100D40000E948306892B11F0E801F4CFBDE27B12EB
:100D500005C00F5F1F4F7980C1E008C0EBE27E1233
:100D600004C08E010E5F1F4F7980C0E06801F1E082
:100D7000CF1AD10843E050E060E770E0C6010E945E
:100D8000EC07892BF1F4680122E0C20ED11C45E08A
:100D900050E06BE670E0C6010E94EC07892B21F45D
:100DA000680187E0C80ED11CE114F10419F0D701E5
:100DB000CD92DC92C111FFC060E070E080E89FE757
:100DC00003C143E050E068E670E0C6010E94EC0712
:100DD000892B51F4E114F10409F4F2C00E5F1F4FA6
:100DE000F70111830083ECC0680160E070E0CB0183
:100DF00000E010E0F601D0EDD70DDA3058F52C2FD9
:100E00002260622E2C2F2870C2FF05C0211128C03D
:100E10000F5F1F4F25C0222311F001501109A5E0DB
:100E2000B0E09B01AC010E9452094B015C01880CAF
:100E3000991CAA1CBB1CC501B4016D0F711D811D3D
:100E4000911D6839A9E97A078A07A9E19A0740F054
:100E5000C66005C0DE3F51F4C3FD44C0C8606C2EBF
:100E6000BFEFCB1ADB0A7080C62DC4CF2D2F2F7D8C
:100E70002531C1F540814D3211F4C06106C04B32BD
:100E800021F0319621E030E006C03296D60111966D
:100E90004C9122E030E0A0EDA40FAA3018F0E21B44
:100EA000F30B20C040E050E04038BCE05B075CF44E
:100EB0009A01220F331F220F331F420F531F440F7B
:100EC000551F4A0F511D3196DF0111972C91A0ED4E
:100ED000A20FAA3048F3C4FF03C0519541955109B0
:100EE000040F151FC1FF07C0E114F10421F0319771
:100EF000D701ED93FC930E940908C370C33019F029
:100F00006B017C0106C06B017C01F7FAF094F7F8E5
:100F1000F09420E030E0A901C701B6010E94040866
:100F2000882309F445C017FF06C0119501951109E2
:100F3000C7E8D0E002C0CFE9D0E05E01B8E1AB1A6B
:100F4000B1084601BE2DAF2D90E2E92EF12C0E1511
:100F50001F0584F0FE012591359145915491B4010E
:100F60008B2F9A2F0E946A084B01B82FA92F0E19B8
:100F70001F09EDCF2497F594E794CA15DB0539F7DF
:100F80006401EB2EFA2E8E2D880F8F2D881F8F3F38
:100F900049F020E030E0A901C701B6010E94040831
:100FA000811106C082E290E09093B6028093B50270
:100FB000C701B60109C060E070E080E89FEF04C09F
:100FC00060E070E080EC9FE7CDB7DEB7EEE00C9418
:100FD0007D09992788270895FB01DC014150504085
:100FE00088F08D9181341CF08B350CF4805E659116
:100FF00061341CF06B350CF4605E861B611171F37B
:10100000990B0895881BFCCF0E94460808F481E0E4
:101010000895E89409C097FB3EF4909580957095EB
:1010200061957F4F8F4F9F4F9923A9F0F92F96E934
:10103000BB279395F695879577956795B795F111A9
:10104000F8CFFAF4BB0F11F460FF1BC06F5F7F4F46
:101050008F4F9F4F16C0882311F096E911C0772358
:1010600021F09EE8872F762F05C0662371F096E861
:10107000862F70E060E02AF09A95660F771F881F30
:10108000DAF7880F9695879597F90895990F0008D4
:10109000550FAA0BE0E8FEEF16161706E807F9074A
:1010A000C0F012161306E407F50798F0621B730BE5
:1010B000840B950B39F40A2661F0232B242B252B66
:1010C00021F408950A2609F4A140A6958FEF811D09
:1010D000811D08950E947D080C94EE080E94E0088E
:1010E00038F00E94E70820F0952311F00C94D708FF
:1010F0000C94DD0811240C9422090E94FF0870F35F
:10110000959FC1F3950F50E0551F629FF001729FAC
:10111000BB27F00DB11D639FAA27F00DB11DAA1FBB
:10112000649F6627B00DA11D661F829F2227B00D08
:10113000A11D621F739FB00DA11D621F839FA00D93
:10114000611D221F749F3327A00D611D231F849FE3
:10115000600D211D822F762F6A2F11249F5750403A
:101160009AF0F1F088234AF0EE0FFF1FBB1F661FB5
:10117000771F881F91505040A9F79E3F510580F07E
:101180000C94D7080C9422095F3FE4F3983ED4F303
:10119000869577956795B795F795E7959F5FC1F722
:1011A000FE2B880F911D9695879597F9089597F9CD
:1011B0009F6780E870E060E008959FEF80EC0895FD
:1011C00000240A9416161706180609060895002426
:1011D0000A9412161306140605060895092E0394A0
:1011E000000C11F4882352F0BB0F40F4BF2B11F414
:1011F00060FF04C06F5F7F4F8F4F9F4F089557FD73
:101200009058440F551F59F05F3F71F04795880F74
:1012100097FB991F61F09F3F79F08795089512160B
:1012200013061406551FF2CF4695F1DF08C01616B7
:1012300017061806991FF1CF869571056105089468
:101240000895E894BB2766277727CB0197F908957F
:10125000F999FECF92BD81BDF89A992780B508957E
:10126000A1E21A2EAA1BBB1BFD010DC0AA1FBB1FAA
:10127000EE1FFF1FA217B307E407F50720F0A21B1C
:10128000B30BE40BF50B661F771F881F991F1A9489
:1012900069F760957095809590959B01AC01BD01B3
:1012A000CF0108950E949409A59F900DB49F900DC1
:1012B000A49F800D911D112408952F923F924F926B
:1012C0005F926F927F928F929F92AF92BF92CF92D6
:1012D000DF92EF92FF920F931F93CF93DF93CDB7DF
:1012E000DEB7CA1BDB0B0FB6F894DEBF0FBECDBF57
:1012F00009942A88398848885F846E847D848C8428
:101300009B84AA84B984C884DF80EE80FD800C8130
:101310001B81AA81B981CE0FD11D0FB6F894DEBF13
:101320000FBECDBFED010895A29FB001B39FC001D4
:10133000A39F700D811D1124911DB29F700D811D01
:101340001124911D08955058BB27AA270E94BB095C
:101350000C94EE080E94E00838F00E94E70820F0A4
:1013600039F49F3F19F426F40C94DD080EF4E0954F
:10137000E7FB0C94D708E92F0E94FF0858F3BA172F
:10138000620773078407950720F079F4A6F50C949B
:1013900021090EF4E0950B2EBA2FA02D0B01B901F7
:1013A00090010C01CA01A0011124FF27591B99F0DB
:1013B000593F50F4503E68F11A16F040A22F232FE7
:1013C000342F4427585FF3CF469537952795A79537
:1013D000F0405395C9F77EF41F16BA0B620B730BDE
:1013E000840BBAF09150A1F0FF0FBB1F661F771F4F
:1013F000881FC2F70EC0BA0F621F731F841F48F404
:10140000879577956795B795F7959E3F08F0B0CF8C
:101410009395880F08F09927EE0F97958795089573
:101420000E94240A0C94EE080E94E70858F00E94DB
:10143000E00840F029F45F3F29F00C94D7085111DF
:101440000C9422090C94DD080E94FF0868F399238C
:10145000B1F3552391F3951B550BBB27AA276217B0
:101460007307840738F09F5F5F4F220F331F441FBD
:10147000AA1FA9F335D00E2E3AF0E0E832D09150F1
:101480005040E695001CCAF72BD0FE2F29D0660FDE
:10149000771F881FBB1F261737074807AB07B0E821
:1014A00009F0BB0B802DBF01FF2793585F4F3AF027
:1014B0009E3F510578F00C94D7080C9422095F3FA9
:1014C000E4F3983ED4F3869577956795B795F795AD
:1014D0009F5FC9F7880F911D9695879597F9089595
:1014E000E1E0660F771F881FBB1F62177307840731
:1014F000BA0720F0621B730B840BBA0BEE1F88F740
:10150000E09508950E94070988F09F5798F0B92F39
:101510009927B751B0F0E1F0660F771F881F991F28
:101520001AF0BA95C9F714C0B13091F00E942109A0
:10153000B1E008950C942109672F782F8827B85FB0
:1015400039F0B93FCCF3869577956795B395D9F780
:101550003EF490958095709561957F4F8F4F9F4F8A
:1015600008950E94460808F48FEF08950E944608E7
:10157000880B990B0895EE0FFF1F0590F491E02D55
:10158000099481E090E0F8940C94C60AF894FFCF97
:10159000000000003C01A500D40083010501E30028
:1015A000F7006E616E00696E66006F766600564DDC
:1015B0004450565F317C315F564D4450560D0A0001
:1015C000696E7365726972652076616C6F726520F1
:1015D000523200436F6D6D616E6420746F6F206CCA
:1015E0006F6E67210052323A2000696E736572692E
:1015F00072652076616C6F72652052330052333A07
:101600002000696E7365726972652076616C6F7215
:0E16100065207652656600765265663A2000C7
:107E0000112484B714BE81FFF0D085E080938100F7
:107E100082E08093C00088E18093C10086E0809377
:107E2000C20080E18093C4008EE0C9D0259A86E02C
:107E300020E33CEF91E0309385002093840096BBD3
:107E4000B09BFECF1D9AA8958150A9F7CC24DD24C4
:107E500088248394B5E0AB2EA1E19A2EF3E0BF2EE7
:107E6000A2D0813461F49FD0082FAFD0023811F036
:107E7000013811F484E001C083E08DD089C08234E0
:107E800011F484E103C0853419F485E0A6D080C0E4
:107E9000853579F488D0E82EFF2485D0082F10E0AE
:107EA000102F00270E291F29000F111F8ED06801E7
:107EB0006FC0863521F484E090D080E0DECF843638
:107EC00009F040C070D06FD0082F6DD080E0C81688
:107ED00080E7D80618F4F601B7BEE895C0E0D1E017
:107EE00062D089930C17E1F7F0E0CF16F0E7DF06D8
:107EF00018F0F601B7BEE89568D007B600FCFDCFD4
:107F0000A601A0E0B1E02C9130E011968C91119780
:107F100090E0982F8827822B932B1296FA010C0160
:107F200087BEE89511244E5F5F4FF1E0A038BF0790
:107F300051F7F601A7BEE89507B600FCFDCF97BE46
:107F4000E89526C08437B1F42ED02DD0F82E2BD052
:107F50003CD0F601EF2C8F010F5F1F4F84911BD097
:107F6000EA94F801C1F70894C11CD11CFA94CF0C13
:107F7000D11C0EC0853739F428D08EE10CD085E9AC
:107F80000AD08FE07ACF813511F488E018D01DD067
:107F900080E101D065CF982F8091C00085FFFCCF94
:107FA0009093C60008958091C00087FFFCCF809118
:107FB000C00084FD01C0A8958091C6000895E0E648
:107FC000F0E098E1908380830895EDDF803219F02E
:107FD00088E0F5DFFFCF84E1DECF1F93182FE3DFCA
:107FE0001150E9F7F2DF1F91089580E0E8DFEE27F6
:047FF000FF270994CA
:027FFE00040479
:0400000300007E007B
:00000001FF