:100000000C9464000C948C000C948C000C948C0068
:100010000C948C000C948C000C948C000C948C0030
:100020000C948C000C948C000C948C000C948C0020
:100030000C948C000C948C000C948C000C948C0010
:100040000C9444040C948C000C9412040C94EC0357
:100050000C948C000C948E040C948C000C948C00EA
:100060000C948C000C948C006364696E6F707375D3
:1000700078585B0000000000240027002A000000E0
:100080000000250028002B000404040404040404D8
:100090000202020202020303030303030102040833
:1000A00010204080010204081020010204081020E2
:1000B0000000000800020100000304070000000027
:1000C000000000003F051D0811241FBECFEFD8E03F
:1000D000DEBFCDBF22E0ACEEB1E001C01D92A13F7A
:1000E000B207E1F711E0A0E0B1E0EAE2F0E202C01D
:1000F00005900D92AC3EB107D9F710E0C3E6D0E011
:1001000004C02197FE010E94C40AC236D107C9F774
:100110000E9486050C9408100C940000EDEBF0E0B2
:100120002491E9EAF0E09491E5E9F0E0E491EE232E
:1001300009F43BC0222339F1233091F038F4213007
:10014000A9F0223001F524B52F7D12C0273091F09F
:100150002830A1F02430B9F4209180002F7D03C015
:10016000209180002F77209380000DC024B52F7739
:1001700024BD09C02091B0002F7703C02091B000AA
:100180002F7D2093B000F0E0EE0FFF1FE258FF4FED
:10019000A591B4912FB7F894EC91811103C090957B
:1001A0009E2301C09E2B9C932FBF0895E091460291
:1001B000F09147020190F081E02D682F86E492E0F3
:1001C0000994CF92DF92EF92FF920F931F93CF93F8
:1001D000DF936C017A018B01C0E0D0E0CE15DF0522
:1001E00089F0D8016D918D01D601ED91FC910190BE
:1001F000F081E02DC6010995892B11F47E0102C022
:100200002196ECCFC701DF91CF911F910F91FF9005
:10021000EF90DF90CF900895089580E090E00895EA
:10022000FC01538D448D252F30E0842F90E0821BFC
:10023000930B541710F0CF96089501970895FC0181
:10024000918D828D981761F0828DDF01A80FB11D0D
:100250005D968C91928D9F5F9F73928F90E0089531
:100260008FEF9FEF0895FC01918D828D981731F0EB
:10027000828DE80FF11D858D90E008958FEF9FEF3F
:100280000895FC01918D228D892F90E0805C9F4F15
:10029000821B91098F739927089586E492E00E944A
:1002A000410121E0892B09F420E0822F0895FC010F
:1002B000848DDF01A80FB11DA35ABF4F2C91848DEF
:1002C00090E001968F739927848FA689B7892C9324
:1002D000A089B1898C9180648C93938D848D9813BF
:1002E00006C00288F389E02D80818F7D8083089588
:1002F000EF92FF920F931F93CF93DF93EC0181E076
:10030000888F9B8D8C8D981305C0E889F989808131
:1003100085FD24C0F62E0B8D10E00F5F1F4F0F736D
:100320001127E02E8C8DE8120CC00FB607FCFACF17
:10033000E889F989808185FFF5CFCE010E945701B8
:10034000F1CF8B8DFE01E80FF11DE35AFF4FF082D4
:100350000B8FEA89FB898081806207C0EE89FF8963
:100360006083E889F98980818064808381E090E0FE
:10037000DF91CF911F910F91FF90EF900895CF9350
:10038000DF93EC01888D8823C9F0EA89FB8980819D
:1003900085FD05C0A889B9898C9186FD0FC00FB66F
:1003A00007FCF5CF808185FFF2CFA889B9898C91B0
:1003B00085FFEDCFCE010E945701E7CFDF91CF91AE
:1003C00008953FB7F8948091080290910902A09196
:1003D0000A02B0910B0226B5A89B05C02F3F19F069
:1003E0000196A11DB11D3FBFBA2FA92F982F8827B5
:1003F000820F911DA11DB11DBC01CD0142E0660F10
:10040000771F881F991F4A95D1F708958F929F9261
:10041000AF92BF92CF92DF92EF92FF926B017C017D
:100420000E94E1014B015C01C114D104E104F1041B
:10043000F1F00E94E101DC01CB0188199909AA09B8
:10044000BB09883E9340A105B10570F321E0C21AB3
:10045000D108E108F10888EE880E83E0981EA11CFF
:10046000B11CC114D104E104F10419F7DDCFFF90F0
:10047000EF90DF90CF90BF90AF909F908F900895B6
:10048000E6E2F2E0119282E0E033F807D9F708954E
:10049000ECEEF1E0119282E0E130F807D9F710922A
:1004A0000202109201020895009769F0FC01019088
:1004B0000020E9F73197AF01481B590BBC0186E4D6
:1004C00092E00C94E10080E090E008958F929F927A
:1004D000AF92BF920F931F93CF93DF93CDB7DEB749
:1004E000A1970FB6F894DEBF0FBECDBF19A2423060
:1004F00008F44AE08E010F5D1F4F842E912CA12C31
:10050000B12CA50194010E94A20AE62FB901CA01EB
:1005100001501109EA3014F4E05D01C0E95CD80132
:10052000EC93232B242B252B61F7C8010E94540246
:10053000A1960FB6F894DEBF0FBECDBFDF91CF916D
:100540001F910F91BF90AF909F908F900895CF9380
:10055000DF930E945402EC018AE191E00E94540270
:100560008C0F9D1FDF91CF9108954F925F926F92F4
:100570007F928F929F92AF92BF92CF92DF92EF9233
:10058000FF92CF936B017C019B01AC010E949D0AFD
:10059000882319F08DE191E01AC046015701E894D3
:1005A000B7F82FEF3FEF4FE75FE7C501B4010E94B7
:1005B0009D0A811110C02FEF3FEF4FE75FE7C501A4
:1005C000B4010E942C08181634F481E291E00E94D4
:1005D00054027C0176C02FEF3FEF4FE75FE4C70185
:1005E000B6010E94980A18161CF485E291E0EFCF3C
:1005F0002FEF3FEF4FE75FECC701B6010E942C08D9
:1006000087FDF3CF20E030E0A901C701B6010E94C9
:100610002C0887FF09C08DE20E94D6005C01F7FA22
:10062000F094F7F8F09402C0A12CB12C2EE632E140
:1006300043E05AE3C701B6010E948B092B013C013C
:100640000E94690A6B017C010E9431089B01AC0188
:10065000C301B2010E948A092B013C014AE0C70193
:10066000B6010E9466027C01EA0CFB1C8EE20E942D
:10067000D600E80EF91EC4E0C15019F120E030E0C8
:1006800040E251E4C301B2010E9492082B013C01F7
:100690000E94690A4B01A12CB12C4AE0C501B401AA
:1006A0000E946602E80EF91EC501B4010E943108DD
:1006B0009B01AC01C301B2010E948A092B013C01DC
:1006C000DBCF8AE191E00E9454028E0D9F1DCF91F5
:1006D000FF90EF90DF90CF90BF90AF909F908F9062
:1006E0007F906F905F904F9008950E94C10CEF92A1
:1006F000FF920F931F93CF93DF93EC017B018A014D
:1007000088819981009729F02A813B812417350738
:10071000F8F4B8016F5F7F4F0E94F70B009759F014
:10072000998388831B830A832C813D81232B81F449
:10073000FC0110820DC088819981009711F00E9400
:100740005F0B198218821D821C821B821A8207C0CD
:100750001D830C83B701888199810E94D80CCE013A
:10076000DF91CF911F910F91FF90EF90089586E454
:1007700092E00E941F018A3081F4ECEEF1E00190DA
:100780000020E9F73197AF014C5E51406CEE71E00B
:1007900083EE92E00E94770317C02091010230910E
:1007A00002022331310564F4A9014F5F5F4F50937A
:1007B000020240930102F901E451FE4F8083089543
:1007C00089E291E00E9454020C9448020E944D017B
:1007D00081110C94B70308951F920F920FB60F92D8
:1007E00011242F933F934F935F936F937F938F9336
:1007F0009F93AF93BF93EF93FF9386E492E00E94A1
:100800005701FF91EF91BF91AF919F918F917F9190
:100810006F915F914F913F912F910F900FBE0F906D
:100820001F9018951F920F920FB60F9211242F93BD
:100830008F939F93EF93FF93E0915602F0915702AD
:100840008081E0915C02F0915D0282FD12C0908196
:1008500080915F028F5F8F7320916002821751F049
:10086000E0915F02F0E0EA5BFD4F958F80935F02BD
:1008700001C08081FF91EF919F918F912F910F90F7
:100880000FBE0F901F9018951F920F920FB60F92E8
:1008900011242F933F938F939F93AF93BF93809196
:1008A000040290910502A0910602B09107023091D6
:1008B000030223E0230F2D3720F40196A11DB11D63
:1008C00005C026E8230F0296A11DB11D2093030247
:1008D0008093040290930502A0930602B09307024E
:1008E0008091080290910902A0910A02B0910B0236
:1008F0000196A11DB11D8093080290930902A09357
:100900000A02B0930B02BF91AF919F918F913F91DB
:100910002F910F900FBE0F901F9018951F920F925E
:100920000FB60F9211244F925F926F927F928F9227
:100930009F92AF92BF92CF92DF92EF92FF922F934E
:100940003F934F935F936F937F938F939F93AF9357
:10095000BF93EF93FF938090100290901102A090AC
:100960001202B0901302E0907800F090790020918C
:100970001402309115024091160250911702C501E0
:10098000B4010E9492082B013C01B70180E090E085
:100990000E94310820E030E040E85AE30E949208CB
:1009A00020E030E040EA50E40E94920820910C02DE
:1009B00030910D0240910E0250910F020E948A095F
:1009C0009B01AC01C301B2010E948B092B013C01C8
:1009D00020E030E040E85FE3C501B4010E948B09EC
:1009E0006B017C01609310027093110280931202DC
:1009F000909313029B01AC01C301B2010E94F7095D
:100A0000609314027093150280931602909317025C
:100A1000609100017091010180E090E00E94310836
:100A20009B01AC01C701B6010E942C0881110AC0CC
:100A3000109245021092440281E090E090931902D6
:100A400080931802FF91EF91BF91AF919F918F9189
:100A50007F916F915F914F913F912F91FF90EF9018
:100A6000DF90CF90BF90AF909F908F907F906F90CE
:100A70005F904F900F900FBE0F901F901895E6E477
:100A8000F2E01382128288EE93E0A0E0B0E084836B
:100A90009583A683B7838CE091E09183808385EC76
:100AA00090E09587848784EC90E09787868780EC38
:100AB00090E0918B808B81EC90E0938B828B82EC29
:100AC00090E0958B848B86EC90E0978B868B118ED3
:100AD000128E138E148E88EC95E2AEE0BBE3809309
:100AE000E9029093EA02A093EB02B093EC02E3EEEA
:100AF000F2E011821082138212821582148240E089
:100B000050E06CE171E0CF010C947703789484B5E8
:100B1000826084BD84B5816084BD85B5826085BDF9
:100B200085B5816085BD80916E00816080936E0087
:100B30001092810080918100826080938100809179
:100B4000810081608093810080918000816080932A
:100B500080008091B10084608093B1008091B000EA
:100B600081608093B00080917A00846080937A00E5
:100B700080917A00826080937A0080917A0081600F
:100B800080937A0080917A00806880937A00109236
:100B9000C10081E480937C0087E880937A00809193
:100BA0007A00806480937A0080917A0080618093DB
:100BB0007A00E9EAF0E02491E5E9F0E08491882305
:100BC00099F090E0880F991FFC01EC58FF4FA59118
:100BD000B491FC01E258FF4F859194918FB7F8943E
:100BE000EC91E22BEC938FBF80E00E948E00E091AD
:100BF0005602F091570282E08083E0915202F09118
:100C000053021082E0915402F091550280E18083FA
:100C100010925E02E0915A02F0915B0286E08083BE
:100C2000E0915802F0915902808180618083E091C7
:100C30005802F0915902808188608083E0915802C7
:100C4000F0915902808180688083E0915802F09190
:100C5000590280818F7D80838BE39FE10197F1F7BB
:100C600080917A00886080937A000E94480284E232
:100C7000282E82E0382E96E2892E92E0992E0BE300
:100C800011E022E0E22EF12CC1E0D0E038E8C32EE2
:100C900033E1D32E43E0A42EB12C809144029091F5
:100CA0004502019729F480917A00806480937A004C
:100CB000A2E2B2E0BF93AF933F922F929F928F92A6
:100CC0001F930F938091E4028F938091E3028F939F
:100CD0000E94DF0C40E050E06CE171E083EE92E0B6
:100CE0000E94770369E471E086E292E00E94CF0CF3
:100CF000ADB7BEB71A960FB6F894BEBF0FBEADBF64
:100D0000892B69F48091240290912502909301012E
:100D100080930001D0932102C093200224C062E599
:100D200071E086E292E00E94CF0C892B09F5609178
:100D3000220270912302072E000C880B990B0E944F
:100D4000330820E030E048EC52E40E94F709609359
:100D50001C0270931D0280931E0290931F02F0925A
:100D60002102E0922002D0934502C09344025DC06C
:100D70006EE471E086E292E00E94CF0C892B29F4A8
:100D800010921B0210921A0252C067E571E086E2CF
:100D900092E00E94CF0C892B11F5412C512C32018D
:100DA0008FE591E00E9454024AE0C301B2010E9423
:100DB00066028AE191E00E9454026AE070E080E0FD
:100DC00090E00E940602BFEF4B1A5B0A6B0A7B0A97
:100DD00024E6421651046104710411F726C063E64B
:100DE00071E086E292E00E94CF0C892B01F581E050
:100DF0000E948E0060E273E080E090E00E940602B4
:100E000080E00E948E0060E273E080E090E00E944B
:100E1000060281E00E948E0060E273E080E090E0D4
:100E20000E94060280E00E948E000E944002809193
:100E3000180290911902019709F0E4C080912002F4
:100E4000909121028130910509F045C02091E9027D
:100E50003091EA024091EB025091EC026091140251
:100E60007091150280911602909117020E94F70965
:100E700060931C0270931D0280931E0290931F02C8
:100E8000D0920101C09200018BE691E00E945402D1
:100E900060911C0270911D0280911E0290911F02B0
:100EA0000E94B502109214021092150210921602BE
:100EB0001092170210921002109211021092120258
:100EC000109213021092190210921802109221022D
:100ED0001092200297C08230910509F049C02091FC
:100EE0001C0230911D0240911E0250911F02609120
:100EF00014027091150280911602909117020E94BF
:100F0000F7096093E9027093EA028093EB029093F1
:100F1000EC028DE691E00E94A70286E492E00E9436
:100F2000BF018CE891E00E9454026091E902709147
:100F3000EA028091EB029091EC020E94B5021092BD
:100F4000210210922002109219021092180210929F
:100F500010021092110210921202109213021092BB
:100F600014021092150210921602109217024AC033
:100F7000039709F047C0409014025090150260900A
:100F800016027090170220E030E0A901C301B201FF
:100F90000E94980A181624F077FA709477F87094E3
:100FA00040920C0250920D0260920E0270920F025B
:100FB000109214021092150210921602109217024B
:100FC00083EC91E00E94A7028AED91E00E94A702C3
:100FD00060910C0270910D0280910E0290910F02AF
:100FE0000E94B50210922102109220021092190262
:100FF0001092180210921002109211021092120216
:101000001092130280911A0290911B02892B91F485
:1010100062E370E080E090E00E940602B09221025C
:10102000A0922002D0931B02C0931A02D0934502D3
:10103000C09344020E94E60330CE8091E302909177
:10104000E4020C945F0B91110C94FF08803219F0AC
:1010500089508550C8F708950E946E0808F481E011
:101060000895E89409C097FB3EF49095809570959B
:1010700061957F4F8F4F9F4F9923A9F0F92F96E9E4
:10108000BB279395F695879577956795B795F11159
:10109000F8CFFAF4BB0F11F460FF1BC06F5F7F4FF6
:1010A0008F4F9F4F16C0882311F096E911C0772308
:1010B00021F09EE8872F762F05C0662371F096E811
:1010C000862F70E060E02AF09A95660F771F881FE0
:1010D000DAF7880F9695879597F90895990F000884
:1010E000550FAA0BE0E8FEEF16161706E807F907FA
:1010F000C0F012161306E407F50798F0621B730B95
:10110000840B950B39F40A2661F0232B242B252B15
:1011100021F408950A2609F4A140A6958FEF811DB8
:10112000811D08950E94A5080C9419090E940B09BD
:1011300038F00E94120920F0952311F00C94020956
:101140000C94080911240C944D090E942A0970F38B
:10115000959FC1F3950F50E0551F629FF001729F5C
:10116000BB27F00DB11D639FAA27F00DB11DAA1F6B
:10117000649F6627B00DA11D661F829F2227B00DB8
:10118000A11D621F739FB00DA11D621F839FA00D43
:10119000611D221F749F3327A00D611D231F849F93
:1011A000600D211D822F762F6A2F11249F575040EA
:1011B0009AF0F1F088234AF0EE0FFF1FBB1F661F65
:1011C000771F881F91505040A9F79E3F510580F02E
:1011D0000C9402090C944D095F3FE4F3983ED4F35C
:1011E000869577956795B795F795E7959F5FC1F7D2
:1011F000FE2B880F911D9695879597F9089599274D
:101200008827089597F99F6780E870E060E0089567
:101210009FEF80EC089500240A941616170618060E
:101220000906089500240A941216130614060506EA
:101230000895092E0394000C11F4882352F0BB0F7B
:1012400040F4BF2B11F460FF04C06F5F7F4F8F4FDE
:101250009F4F089557FD9058440F551F59F05F3F19
:1012600071F04795880F97FB991F61F09F3F79F0C8
:1012700087950895121613061406551FF2CF46954A
:10128000F1DF08C0161617061806991FF1CF8695CC
:101290007105610508940895E894BB2766277727B0
:1012A000CB0197F908952F923F924F925F926F92E0
:1012B0007F928F929F92AF92BF92CF92DF92EF92E6
:1012C000FF920F931F93CF93DF93CDB7DEB7CA1B67
:1012D000DB0B0FB6F894DEBF0FBECDBF09942A8892
:1012E000398848885F846E847D848C849B84AA843A
:1012F000B984C884DF80EE80FD800C811B81AA81C7
:10130000B981CE0FD11D0FB6F894DEBF0FBECDBF91
:10131000ED0108955058BB27AA270E94A2090C94FA
:1013200019090E940B0938F00E94120920F039F4C3
:101330009F3F19F426F40C9408090EF4E095E7FB9E
:101340000C940209E92F0E942A0958F3BA17620780
:1013500073078407950720F079F4A6F50C944C09DF
:101360000EF4E0950B2EBA2FA02D0B01B9019001C0
:101370000C01CA01A0011124FF27591B99F0593F04
:1013800050F4503E68F11A16F040A22F232F342F4C
:101390004427585FF3CF469537952795A795F0409A
:1013A0005395C9F77EF41F16BA0B620B730B840BAF
:1013B000BAF09150A1F0FF0FBB1F661F771F881F67
:1013C000C2F70EC0BA0F621F731F841F48F48795BF
:1013D00077956795B795F7959E3F08F0B0CF9395B1
:1013E000880F08F09927EE0F9795879508950E942A
:1013F0000B0A0C9419090E94120958F00E940B095B
:1014000040F029F45F3F29F00C94020951110C942B
:101410004D090C9408090E942A0968F39923B1F335
:10142000552391F3951B550BBB27AA27621773070A
:10143000840738F09F5F5F4F220F331F441FAA1F9E
:10144000A9F335D00E2E3AF0E0E832D0915050405A
:10145000E695001CCAF72BD0FE2F29D0660F771F08
:10146000881FBB1F261737074807AB07B0E809F0EE
:10147000BB0B802DBF01FF2793585F4F3AF09E3F73
:10148000510578F00C9402090C944D095F3FE4F388
:10149000983ED4F3869577956795B795F7959F5FB6
:1014A000C9F7880F911D9695879597F90895E1E002
:1014B000660F771F881FBB1F621773078407BA0761
:1014C00020F0621B730B840BBA0BEE1F88F7E095BC
:1014D00008950E94320988F09F5798F0B92F9927F4
:1014E000B751B0F0E1F0660F771F881F991F1AF00F
:1014F000BA95C9F714C0B13091F00E944C09B1E01F
:1015000008950C944C09672F782F8827B85F39F01D
:10151000B93FCCF3869577956795B395D9F73EF4A7
:1015200090958095709561957F4F8F4F9F4F08954F
:101530000E946E0808F48FEF08950E946E08880BD1
:10154000990B0895A1E21A2EAA1BBB1BFD010DC029
:10155000AA1FBB1FEE1FFF1FA217B307E407F50763
:1015600020F0A21BB30BE40BF50B661F771F881F3F
:10157000991F1A9469F760957095809590959B01D5
:10158000AC01BD01CF010895EE0FFF1F0590F4914E
:10159000E02D0994CF93DF938230910510F482E01F
:1015A00090E0E091EF02F091F00220E030E0C0E046
:1015B000D0E0309711F14081518148175907C0F0B0
:1015C0004817590761F482819381209719F09B8312
:1015D0008A832BC09093F0028093EF0226C02115DE
:1015E000310519F04217530718F49A01BE01DF01C3
:1015F000EF010280F381E02DDCCF2115310509F1E7
:10160000281B390B2430310590F412968D919C9152
:1016100013976115710521F0FB019383828304C048
:101620009093F0028093EF02FD01329644C0FD01D9
:10163000E20FF31F81939193225031092D933C9334
:101640003AC02091ED023091EE02232B41F420911B
:101650000401309105013093EE022093ED022091B8
:101660000201309103012115310541F42DB73EB738
:101670004091060150910701241B350BE091ED02CA
:10168000F091EE02E217F307A0F42E1B3F0B281790
:10169000390778F0AC014E5F5F4F2417350748F0EB
:1016A0004E0F5F1F5093EE024093ED028193919392
:1016B00002C0E0E0F0E0CF01DF91CF9108950F93F9
:1016C0001F93CF93DF93009709F48CC0FC013297EE
:1016D000138212820091EF021091F00201151105A0
:1016E00081F420813181820F931F2091ED0230918E
:1016F000EE022817390779F5F093EE02E093ED0238
:1017000071C0D80140E050E0AE17BF0750F4129608
:101710002D913C911397AD012115310509F1D901A6
:10172000F3CF9D01DA013383228360817181860FBB
:10173000971F8217930769F4EC0128813981260FDE
:10174000371F2E5F3F4F318320838A819B81938394
:101750008283452B29F4F093F002E093EF0242C01C
:101760001396FC93EE931297ED01499159919E01C6
:10177000240F351FE217F30771F480819181840FE4
:10178000951F029611969C938E9382819381139656
:101790009C938E931297E0E0F0E0D80112968D9121
:1017A0009C911397009719F0F8018C01F6CF8D9159
:1017B0009C9198012E5F3F4F820F931F2091ED0265
:1017C0003091EE022817390769F4309729F4109206
:1017D000F0021092EF0202C0138212821093EE0206
:1017E0000093ED02DF91CF911F910F910895A0E03A
:1017F000B0E0EDEFFBE00C945709EC01009721F409
:10180000CB010E94CA0AB8C0FC01E60FF71F9C0179
:1018100022503109E217F30708F4ACC0D9010D9149
:101820001C91119706171707B0F00530110508F441
:101830009FC0C80104978617970708F499C0025003
:101840001109061B170B019311936D937C93CF0124
:101850000E945F0B8DC05B01A01AB10A4C01800E83
:10186000911EA091EF02B091F00240E050E0E12C17
:10187000F12C109709F44AC0A815B905D1F56D905F
:101880007C901197630182E0C80ED11CCA14DB045E
:1018900080F1A3014A195B096A0182E0C80ED11CDC
:1018A0001296BC9012971396AC91B5E0CB16D1046A
:1018B00040F0B282A38351834083D9016D937C931E
:1018C0000AC00E5F1F4FC301800F911FF901918362
:1018D0008083EB2DFA2FE114F10431F0D701139638
:1018E000FC93EE93129744C0F093F002E093EF0262
:1018F0003FC08D919C9111974817590708F4AC018E
:101900007D0112960D90BC91A02DB3CF8091ED0278
:101910009091EE0288159905E1F446175707C8F42F
:101920008091020190910301009741F48DB79EB719
:101930004091060150910701841B950BE817F907A8
:10194000C8F4F093EE02E093ED02F9017183608335
:101950000FC0CB010E94CA0A7C01009759F0A80170
:10196000BE010E94C60CCE010E945F0BC70104C0DD
:10197000CE0102C080E090E0CDB7DEB7EEE00C947F
:10198000730981E090E0F8940C940810FB01DC01ED
:1019900002C001900D9241505040D8F70895FB01CC
:1019A000DC018D91019080190110D9F3990B0895F4
:1019B000FB01DC0101900D920020E1F70895AEE0FB
:1019C000B0E0E5EEFCE00C94630985E08C838B8944
:1019D0009C899A838983AE01495E5F4F6D897E89B8
:1019E000CE0101960E94780E2E96E2E00C947F09BB
:1019F00020FD09C0FC0123FD05C022FF02C0738346
:101A0000628351834083089544FD10C046FD10C099
:101A1000DB01FC01AA0FBB1FEE1FFF1F1094D1F7C3
:101A20006A0F7B1F8E1F9F1F31E003C033E001C090
:101A300034E0660F771F881F991F3150D1F7620F6E
:101A4000711D811D911D08950F931F93CF93DF93F7
:101A50008C01C8010E94B10FEC0197FD08C00E94E3
:101A60002308892BB1F7B801CE010E94EF0FCE01F8
:101A7000DF91CF911F910F910895A1E0B0E0E3E4D1
:101A8000FDE00C9459098C01C62E7A0129830E942D
:101A9000B10FAC01552729814B32510521F04D3250
:101AA000510569F42068CA94C11002C080E076C074
:101AB000C80129830E94B10F298197FDF7CF322FEA
:101AC0003D7FD32E322F307349F5803339F5BB2457
:101AD000BA94BC0C09F44EC0C80129830E94B10F0E
:101AE000298197FD47C0382F3F7D383569F48D2D0A
:101AF0008264D82ECA94CA94CC20E1F1C8010E9415
:101B0000B10F97FF0BC036C026FF04C02D2D2260F9
:101B1000D22E03C03D2D3261D32ECB2C812C912CA3
:101B2000540120ED280F283080F0D4FE04C0B80105
:101B30000E94EF0F1CC02A3040F0D6FEF8CF2F7D58
:101B40003FEE320F363098F727504D2DC501B401C6
:101B50000E94040D4B015C018D2D8260D82ECA9429
:101B6000CC2059F0C8010E94B10F97FFDACFD1FC09
:101B700004C09CCF812C912C5401D7FE08C0B09496
:101B8000A09490948094811C911CA11CB11C2D2DBB
:101B9000B501A401C7010E94F80C81E02196ECE098
:101BA0000C947509A1E2B0E0E8EDFDE00C94570952
:101BB0005C017A01CE0101966C0180E2F60111927E
:101BC0008A95E9F7F501838040E050E0912C712C73
:101BD00070E0A1E0B0E0F90183FC859183FE819182
:101BE0008F01982F9F01811103C080E090E07CC09D
:101BF0008E3519F44115510549F1E72FF0E0E4174E
:101C0000F5073CF48D3559F18D3219F4772001F147
:101C100003C0711001C0982E892F869586958695F0
:101C20008601080F111D892F87703D0101C0660CC8
:101C30008A95EAF7F801808186298083991559F001
:101C4000991510F49F5FE8CF9150E6CF71E004C082
:101C50007724739401C0712C4F5F5F4FBCCF772006
:101C600019F08E8180628E83711103C09924939440
:101C700016C0F6019E012F5D3F4F808180958193B4
:101C8000E217F307D1F7F2CFE114F10429F0F701DD
:101C90008083C70101967C016150912CF9F0C50148
:101CA00069A30E94B10F69A197FD16C0282F269540
:101CB00026952695F601E20FF11D208130E0AC015A
:101CC0004770552702C0359527954A95E2F720FDC4
:101CD000DBCFB5010E94EF0F911087CFE114F10423
:101CE00011F0F7011082C801A196EEE00C9473097F
:101CF0004F925F927F928F929F92AF92BF92CF92BC
:101D0000DF92EF92FF920F931F93CF93DF931F9277
:101D1000CDB7DEB76C012B015A01FC011782168288
:101D2000712CF601F380F201F3FC8591F3FE8191B1
:101D3000382F2F01882309F4F3C090E039830E94E3
:101D400023083981892B21F0C6010E94240DE9CF97
:101D5000353241F4F201F3FC3591F3FE31912F015C
:101D6000353269F4C60139830E94B10F398197FD7C
:101D7000D5C03817B1F2B6010E94EF0FD1C03A3288
:101D800039F4F3FC3591F3FE31912F0151E001C09C
:101D900050E0420110E020ED230F2A3090F4526011
:101DA000612F70E080E090E040E259830E94040DD2
:101DB000162FF401F3FC3591F3FE31914F01598157
:101DC000EACF052F232F240151FF03C0111102C0B8
:101DD000A7C01FEF383619F03C3659F011C0F40196
:101DE000F3FC2591F3FE21912F01283649F4052FAC
:101DF00008600460F201F3FC2591F3FE21912F01AC
:101E0000222309F48DC0622F70E088E690E02983D8
:101E10000E94A60F2981892B09F482C000FD07C00A
:101E2000F501E080F180C50102965C0102C0E12C61
:101E3000F12C2E3651F4F6014681578160E070E0B6
:101E4000202FC7010E94F80C6CCF233691F401FFBC
:101E500011E0C6010E94B10F97FD60C0E114F104CA
:101E600029F0F7018083C70101967C01115089F7A1
:101E700051C02B3559F49201A701612FC6010E9470
:101E8000D20D2C01892B09F045C03FC0C601298322
:101E90000E94240D298197FD41C02F3659F128F465
:101EA000243631F1293649F127C0233769F0253727
:101EB000F9F022C0E114F10429F0F7018082C70192
:101EC00001967C01115071F0C6010E94B10F4C01C6
:101ED00097FD08C00E942308892B61F3B601C40155
:101EE0000E94EF0FE114F104A9F0F701108212C073
:101EF000006203C0006101C00064202FA701612FB0
:101F0000C6010E943D0D811105C0F60183818073D9
:101F100029F406C000FD05CF739403CF772019F094
:101F2000872D90E002C08FEF9FEF0F90DF91CF9150
:101F30001F910F91FF90EF90DF90CF90BF90AF90E7
:101F40009F908F907F905F904F900895FC01059037
:101F5000061621F00020D9F7C00108953197CF016E
:101F60000895CF93DF93EC012B8120FF33C026FF30
:101F70000AC02F7B2B838E819F8101969F838E8346
:101F80008A8190E029C022FF0FC0E881F981808119
:101F9000082E000C990B009719F420622B831AC0AD
:101FA0003196F983E8830EC0EA85FB85099597FF92
:101FB00009C02B81019611F080E201C080E1822BE3
:101FC0008B8308C02E813F812F5F3F4F3F832E833D
:101FD000992702C08FEF9FEFDF91CF910895FB010A
:101FE000238120FF12C026FD10C08F3F3FEF9307D3
:101FF00061F082832F7D20642383268137812150E5
:10200000310937832683992708958FEF9FEF08952D
:1020100010E0C3E6D0E004C0FE010E94C40A21968D
:0A202000C436D107C9F7F894FFCFCA
:10202A00E8030000F1028000000000007801E100EE
:10203A001001BF0141011F0133010D0A006E616EDB
:10204A0000696E66006F7666006572726F7265204F
:10205A00726963657A696F6E650A00252A7320259D
:10206A007320256420256420006D65617300617505
:10207A00746F7461726100746573745F747800EFD1
:10208A00BFBD00746573745F727800230074617257
:10209A0061747572612073656E736962696C6974C3
:1020AA006127206573656775697461006E756F765F
:1020BA006120636F7374616E746520646920746152
:1020CA00726174757261202873656E736962696CD6
:1020DA006974615F706F6E74652F6761696E292715
:1020EA003A20006175746F2074617261747572614F
:1020FA002065736567756974610074656E73696FCD
:0C210A006E65206F66667365743A000015
:107E0000112484B714BE81FFF0D085E080938100F7
:107E100082E08093C00088E18093C10086E0809377
:107E2000C20080E18093C4008EE0C9D0259A86E02C
:107E300020E33CEF91E0309385002093840096BBD3
:107E4000B09BFECF1D9AA8958150A9F7CC24DD24C4
:107E500088248394B5E0AB2EA1E19A2EF3E0BF2EE7
:107E6000A2D0813461F49FD0082FAFD0023811F036
:107E7000013811F484E001C083E08DD089C08234E0
:107E800011F484E103C0853419F485E0A6D080C0E4
:107E9000853579F488D0E82EFF2485D0082F10E0AE
:107EA000102F00270E291F29000F111F8ED06801E7
:107EB0006FC0863521F484E090D080E0DECF843638
:107EC00009F040C070D06FD0082F6DD080E0C81688
:107ED00080E7D80618F4F601B7BEE895C0E0D1E017
:107EE00062D089930C17E1F7F0E0CF16F0E7DF06D8
:107EF00018F0F601B7BEE89568D007B600FCFDCFD4
:107F0000A601A0E0B1E02C9130E011968C91119780
:107F100090E0982F8827822B932B1296FA010C0160
:107F200087BEE89511244E5F5F4FF1E0A038BF0790
:107F300051F7F601A7BEE89507B600FCFDCF97BE46
:107F4000E89526C08437B1F42ED02DD0F82E2BD052
:107F50003CD0F601EF2C8F010F5F1F4F84911BD097
:107F6000EA94F801C1F70894C11CD11CFA94CF0C13
:107F7000D11C0EC0853739F428D08EE10CD085E9AC
:107F80000AD08FE07ACF813511F488E018D01DD067
:107F900080E101D065CF982F8091C00085FFFCCF94
:107FA0009093C60008958091C00087FFFCCF809118
:107FB000C00084FD01C0A8958091C6000895E0E648
:107FC000F0E098E1908380830895EDDF803219F02E
:107FD00088E0F5DFFFCF84E1DECF1F93182FE3DFCA
:107FE0001150E9F7F2DF1F91089580E0E8DFEE27F6
:047FF000FF270994CA
:027FFE00040479
:0400000300007E007B
:00000001FF